:1000000012C019C018C017C016C015C014C013C044
:1000100012C011C010C01EC00EC00DC00CC00BC05D
:100020000AC009C008C011241FBECFE5D4E0DEBF5E
:10003000CDBF26D02FC0E4CF10BC89E089B988E1BC
:100040008AB981E080BD08959BB18CB908958BB1C8
:100050008CB108951F920F920FB60F9211248F93B7
:100060009F938CB11CB8813621F488B391E0892725
:1000700088BB9F918F910F900FBE0F901F90189586
:1000800083E087BB81E088BB82E082BBD5DF579AE3
:080090007894FFCFF894FFCF34
:00000001FF
