:1000000012C019C018C017C016C015C014C013C044
:1000100012C011C010C00FC00EC00DC00CC00BC06C
:100020000AC009C008C011241FBECFE5D4E0DEBF5E
:10003000CDBF10D023C0E4CF10BC89E089B988E1DE
:100040008AB981E080BD08959BB18CB908958BB1C8
:100050008CB1089582E082BBEFDF17BAB89AC19ADB
:100060008FE39CE90197F1F700C00000B19B04C049
:10007000C09A81E6E9DFF4CFC098F2CFF894FFCFC1
:00000001FF
